{
  "contractName": "BridgeBsc",
  "abi": [
    {
      "inputs": [
        {
          "internalType": "address",
          "name": "token",
          "type": "address"
        }
      ],
      "stateMutability": "nonpayable",
      "type": "constructor"
    },
    {
      "anonymous": false,
      "inputs": [
        {
          "indexed": false,
          "internalType": "address",
          "name": "from",
          "type": "address"
        },
        {
          "indexed": false,
          "internalType": "address",
          "name": "to",
          "type": "address"
        },
        {
          "indexed": false,
          "internalType": "uint256",
          "name": "amount",
          "type": "uint256"
        },
        {
          "indexed": false,
          "internalType": "uint256",
          "name": "date",
          "type": "uint256"
        },
        {
          "indexed": false,
          "internalType": "uint256",
          "name": "nonce",
          "type": "uint256"
        },
        {
          "indexed": true,
          "internalType": "enum BridgeBase.Step",
          "name": "step",
          "type": "uint8"
        }
      ],
      "name": "Transfer",
      "type": "event"
    },
    {
      "inputs": [],
      "name": "admin",
      "outputs": [
        {
          "internalType": "address",
          "name": "",
          "type": "address"
        }
      ],
      "stateMutability": "view",
      "type": "function"
    },
    {
      "inputs": [
        {
          "internalType": "address",
          "name": "to",
          "type": "address"
        },
        {
          "internalType": "uint256",
          "name": "amount",
          "type": "uint256"
        }
      ],
      "name": "burn",
      "outputs": [],
      "stateMutability": "nonpayable",
      "type": "function"
    },
    {
      "inputs": [
        {
          "internalType": "address",
          "name": "to",
          "type": "address"
        },
        {
          "internalType": "uint256",
          "name": "amount",
          "type": "uint256"
        },
        {
          "internalType": "uint256",
          "name": "otherChainNonce",
          "type": "uint256"
        }
      ],
      "name": "mint",
      "outputs": [],
      "stateMutability": "nonpayable",
      "type": "function"
    },
    {
      "inputs": [],
      "name": "nonce",
      "outputs": [
        {
          "internalType": "uint256",
          "name": "",
          "type": "uint256"
        }
      ],
      "stateMutability": "view",
      "type": "function"
    },
    {
      "inputs": [
        {
          "internalType": "uint256",
          "name": "",
          "type": "uint256"
        }
      ],
      "name": "processedNonces",
      "outputs": [
        {
          "internalType": "bool",
          "name": "",
          "type": "bool"
        }
      ],
      "stateMutability": "view",
      "type": "function"
    },
    {
      "inputs": [],
      "name": "token",
      "outputs": [
        {
          "internalType": "contract IToken",
          "name": "",
          "type": "address"
        }
      ],
      "stateMutability": "view",
      "type": "function"
    }
  ],
  "bytecode": "0x608060405234801561000f575f80fd5b506040516104f43803806104f483398101604081905261002e91610060565b5f80546001600160a01b03199081163317909155600180546001600160a01b039093169290911691909117905561008d565b5f60208284031215610070575f80fd5b81516001600160a01b0381168114610086575f80fd5b9392505050565b61045a8061009a5f395ff3fe608060405234801561000f575f80fd5b5060043610610060575f3560e01c8063156e29f61461006457806391dae519146100795780639dc29fac146100b0578063affed0e0146100c3578063f851a440146100da578063fc0c546a14610104575b5f80fd5b610077610072366004610391565b610117565b005b61009b6100873660046103c1565b60036020525f908152604090205460ff1681565b60405190151581526020015b60405180910390f35b6100776100be3660046103d8565b61029f565b6100cc60025481565b6040519081526020016100a7565b5f546100ec906001600160a01b031681565b6040516001600160a01b0390911681526020016100a7565b6001546100ec906001600160a01b031681565b5f546001600160a01b031633146101625760405162461bcd60e51b815260206004820152600a60248201526937b7363c9030b236b4b760b11b60448201526064015b60405180910390fd5b5f8181526003602052604090205460ff16156101c05760405162461bcd60e51b815260206004820152601a60248201527f7472616e7366657220616c72656164792070726f6365737365640000000000006044820152606401610159565b5f8181526003602052604090819020805460ff191660019081179091555490516340c10f1960e01b81526001600160a01b03858116600483015260248201859052909116906340c10f19906044015f604051808303815f87803b158015610225575f80fd5b505af1158015610237573d5f803e3d5ffd5b5060019250610244915050565b604080513381526001600160a01b0386166020820152908101849052426060820152608081018390527f27757542a5e1b9e8cef80f584e094d4eb63b9802f355c61b3640b71b618d5c8e9060a00160405180910390a2505050565b600154604051632770a7eb60e21b8152336004820152602481018390526001600160a01b0390911690639dc29fac906044015f604051808303815f87803b1580156102e8575f80fd5b505af11580156102fa573d5f803e3d5ffd5b505f9250610306915050565b600254604080513381526001600160a01b03861660208201528082018590524260608201526080810192909252517f27757542a5e1b9e8cef80f584e094d4eb63b9802f355c61b3640b71b618d5c8e9181900360a00190a260028054905f61036d83610400565b91905055505050565b80356001600160a01b038116811461038c575f80fd5b919050565b5f805f606084860312156103a3575f80fd5b6103ac84610376565b95602085013595506040909401359392505050565b5f602082840312156103d1575f80fd5b5035919050565b5f80604083850312156103e9575f80fd5b6103f283610376565b946020939093013593505050565b5f6001820161041d57634e487b7160e01b5f52601160045260245ffd5b506001019056fea26469706673582212200dfb7256b372d6644c0bdf9c8d56b65af02f8228a1c9226d8a401bfe7c1c82be64736f6c63430008140033",
  "immutableReferences": {},
  "source": "// SPDX-License-Identifier: MIT\npragma solidity ^0.8.20;\n\nimport './BridgeBase.sol';\n\ncontract BridgeBsc is BridgeBase {\n  constructor(address token) BridgeBase(token) {}\n}",
  "sourcePath": "/Users/urvaprajapati/Documents/untitled folder/contracts/BridgeBsc.sol",
  "compiler": {
    "name": "solc",
    "version": "0.8.20+commit.a1b79de6.Emscripten.clang"
  },
  "schemaVersion": "3.4.16",
  "updatedAt": "2024-03-01T14:08:13.094Z",
  "devdoc": {
    "kind": "dev",
    "methods": {},
    "version": 1
  },
  "userdoc": {
    "kind": "user",
    "methods": {},
    "version": 1
  }
}