{
  "contractName": "TokenEth",
  "abi": [
    {
      "inputs": [],
      "stateMutability": "nonpayable",
      "type": "constructor"
    },
    {
      "inputs": [
        {
          "internalType": "address",
          "name": "spender",
          "type": "address"
        },
        {
          "internalType": "uint256",
          "name": "allowance",
          "type": "uint256"
        },
        {
          "internalType": "uint256",
          "name": "needed",
          "type": "uint256"
        }
      ],
      "name": "ERC20InsufficientAllowance",
      "type": "error"
    },
    {
      "inputs": [
        {
          "internalType": "address",
          "name": "sender",
          "type": "address"
        },
        {
          "internalType": "uint256",
          "name": "balance",
          "type": "uint256"
        },
        {
          "internalType": "uint256",
          "name": "needed",
          "type": "uint256"
        }
      ],
      "name": "ERC20InsufficientBalance",
      "type": "error"
    },
    {
      "inputs": [
        {
          "internalType": "address",
          "name": "approver",
          "type": "address"
        }
      ],
      "name": "ERC20InvalidApprover",
      "type": "error"
    },
    {
      "inputs": [
        {
          "internalType": "address",
          "name": "receiver",
          "type": "address"
        }
      ],
      "name": "ERC20InvalidReceiver",
      "type": "error"
    },
    {
      "inputs": [
        {
          "internalType": "address",
          "name": "sender",
          "type": "address"
        }
      ],
      "name": "ERC20InvalidSender",
      "type": "error"
    },
    {
      "inputs": [
        {
          "internalType": "address",
          "name": "spender",
          "type": "address"
        }
      ],
      "name": "ERC20InvalidSpender",
      "type": "error"
    },
    {
      "anonymous": false,
      "inputs": [
        {
          "indexed": true,
          "internalType": "address",
          "name": "owner",
          "type": "address"
        },
        {
          "indexed": true,
          "internalType": "address",
          "name": "spender",
          "type": "address"
        },
        {
          "indexed": false,
          "internalType": "uint256",
          "name": "value",
          "type": "uint256"
        }
      ],
      "name": "Approval",
      "type": "event"
    },
    {
      "anonymous": false,
      "inputs": [
        {
          "indexed": true,
          "internalType": "address",
          "name": "from",
          "type": "address"
        },
        {
          "indexed": true,
          "internalType": "address",
          "name": "to",
          "type": "address"
        },
        {
          "indexed": false,
          "internalType": "uint256",
          "name": "value",
          "type": "uint256"
        }
      ],
      "name": "Transfer",
      "type": "event"
    },
    {
      "inputs": [],
      "name": "admin",
      "outputs": [
        {
          "internalType": "address",
          "name": "",
          "type": "address"
        }
      ],
      "stateMutability": "view",
      "type": "function"
    },
    {
      "inputs": [
        {
          "internalType": "address",
          "name": "owner",
          "type": "address"
        },
        {
          "internalType": "address",
          "name": "spender",
          "type": "address"
        }
      ],
      "name": "allowance",
      "outputs": [
        {
          "internalType": "uint256",
          "name": "",
          "type": "uint256"
        }
      ],
      "stateMutability": "view",
      "type": "function"
    },
    {
      "inputs": [
        {
          "internalType": "address",
          "name": "spender",
          "type": "address"
        },
        {
          "internalType": "uint256",
          "name": "value",
          "type": "uint256"
        }
      ],
      "name": "approve",
      "outputs": [
        {
          "internalType": "bool",
          "name": "",
          "type": "bool"
        }
      ],
      "stateMutability": "nonpayable",
      "type": "function"
    },
    {
      "inputs": [
        {
          "internalType": "address",
          "name": "account",
          "type": "address"
        }
      ],
      "name": "balanceOf",
      "outputs": [
        {
          "internalType": "uint256",
          "name": "",
          "type": "uint256"
        }
      ],
      "stateMutability": "view",
      "type": "function"
    },
    {
      "inputs": [
        {
          "internalType": "address",
          "name": "owner",
          "type": "address"
        },
        {
          "internalType": "uint256",
          "name": "amount",
          "type": "uint256"
        }
      ],
      "name": "burn",
      "outputs": [],
      "stateMutability": "nonpayable",
      "type": "function"
    },
    {
      "inputs": [],
      "name": "decimals",
      "outputs": [
        {
          "internalType": "uint8",
          "name": "",
          "type": "uint8"
        }
      ],
      "stateMutability": "view",
      "type": "function"
    },
    {
      "inputs": [
        {
          "internalType": "address",
          "name": "to",
          "type": "address"
        },
        {
          "internalType": "uint256",
          "name": "amount",
          "type": "uint256"
        }
      ],
      "name": "mint",
      "outputs": [],
      "stateMutability": "nonpayable",
      "type": "function"
    },
    {
      "inputs": [],
      "name": "name",
      "outputs": [
        {
          "internalType": "string",
          "name": "",
          "type": "string"
        }
      ],
      "stateMutability": "view",
      "type": "function"
    },
    {
      "inputs": [],
      "name": "symbol",
      "outputs": [
        {
          "internalType": "string",
          "name": "",
          "type": "string"
        }
      ],
      "stateMutability": "view",
      "type": "function"
    },
    {
      "inputs": [],
      "name": "totalSupply",
      "outputs": [
        {
          "internalType": "uint256",
          "name": "",
          "type": "uint256"
        }
      ],
      "stateMutability": "view",
      "type": "function"
    },
    {
      "inputs": [
        {
          "internalType": "address",
          "name": "to",
          "type": "address"
        },
        {
          "internalType": "uint256",
          "name": "value",
          "type": "uint256"
        }
      ],
      "name": "transfer",
      "outputs": [
        {
          "internalType": "bool",
          "name": "",
          "type": "bool"
        }
      ],
      "stateMutability": "nonpayable",
      "type": "function"
    },
    {
      "inputs": [
        {
          "internalType": "address",
          "name": "from",
          "type": "address"
        },
        {
          "internalType": "address",
          "name": "to",
          "type": "address"
        },
        {
          "internalType": "uint256",
          "name": "value",
          "type": "uint256"
        }
      ],
      "name": "transferFrom",
      "outputs": [
        {
          "internalType": "bool",
          "name": "",
          "type": "bool"
        }
      ],
      "stateMutability": "nonpayable",
      "type": "function"
    },
    {
      "inputs": [
        {
          "internalType": "address",
          "name": "newAdmin",
          "type": "address"
        }
      ],
      "name": "updateAdmin",
      "outputs": [],
      "stateMutability": "nonpayable",
      "type": "function"
    }
  ],
  "bytecode": "0x608060405234801561000f575f80fd5b506040518060400160405280600981526020016822aa24102a37b5b2b760b91b8152506040518060400160405280600381526020016245544b60e81b8152508181816003908161005f9190610123565b50600461006c8282610123565b5050600580546001600160a01b03191633179055506101de915050565b634e487b7160e01b5f52604160045260245ffd5b600181811c908216806100b157607f821691505b6020821081036100cf57634e487b7160e01b5f52602260045260245ffd5b50919050565b601f82111561011e575f81815260208120601f850160051c810160208610156100fb5750805b601f850160051c820191505b8181101561011a57828155600101610107565b5050505b505050565b81516001600160401b0381111561013c5761013c610089565b6101508161014a845461009d565b846100d5565b602080601f831160018114610183575f841561016c5750858301515b5f19600386901b1c1916600185901b17855561011a565b5f85815260208120601f198616915b828110156101b157888601518255948401946001909101908401610192565b50858210156101ce57878501515f19600388901b60f8161c191681555b5050505050600190811b01905550565b6108e1806101eb5f395ff3fe608060405234801561000f575f80fd5b50600436106100cb575f3560e01c806370a0823111610088578063a9059cbb11610063578063a9059cbb1461019c578063dd62ed3e146101af578063e2f273bd146101e7578063f851a440146101fa575f80fd5b806370a082311461015957806395d89b41146101815780639dc29fac14610189575f80fd5b806306fdde03146100cf578063095ea7b3146100ed57806318160ddd1461011057806323b872dd14610122578063313ce5671461013557806340c10f1914610144575b5f80fd5b6100d7610225565b6040516100e49190610718565b60405180910390f35b6101006100fb36600461077e565b6102b5565b60405190151581526020016100e4565b6002545b6040519081526020016100e4565b6101006101303660046107a6565b6102ce565b604051601281526020016100e4565b61015761015236600461077e565b6102f1565b005b6101146101673660046107df565b6001600160a01b03165f9081526020819052604090205490565b6100d7610332565b61015761019736600461077e565b610341565b6101006101aa36600461077e565b610375565b6101146101bd3660046107ff565b6001600160a01b039182165f90815260016020908152604080832093909416825291909152205490565b6101576101f53660046107df565b610382565b60055461020d906001600160a01b031681565b6040516001600160a01b0390911681526020016100e4565b60606003805461023490610830565b80601f016020809104026020016040519081016040528092919081815260200182805461026090610830565b80156102ab5780601f10610282576101008083540402835291602001916102ab565b820191905f5260205f20905b81548152906001019060200180831161028e57829003601f168201915b5050505050905090565b5f336102c28185856103ce565b60019150505b92915050565b5f336102db8582856103e0565b6102e685858561045b565b506001949350505050565b6005546001600160a01b031633146103245760405162461bcd60e51b815260040161031b90610868565b60405180910390fd5b61032e82826104b8565b5050565b60606004805461023490610830565b6005546001600160a01b0316331461036b5760405162461bcd60e51b815260040161031b90610868565b61032e82826104ec565b5f336102c281858561045b565b6005546001600160a01b031633146103ac5760405162461bcd60e51b815260040161031b90610868565b600580546001600160a01b0319166001600160a01b0392909216919091179055565b6103db8383836001610520565b505050565b6001600160a01b038381165f908152600160209081526040808320938616835292905220545f198114610455578181101561044757604051637dc7a0d960e11b81526001600160a01b0384166004820152602481018290526044810183905260640161031b565b61045584848484035f610520565b50505050565b6001600160a01b03831661048457604051634b637e8f60e11b81525f600482015260240161031b565b6001600160a01b0382166104ad5760405163ec442f0560e01b81525f600482015260240161031b565b6103db8383836105f2565b6001600160a01b0382166104e15760405163ec442f0560e01b81525f600482015260240161031b565b61032e5f83836105f2565b6001600160a01b03821661051557604051634b637e8f60e11b81525f600482015260240161031b565b61032e825f836105f2565b6001600160a01b0384166105495760405163e602df0560e01b81525f600482015260240161031b565b6001600160a01b03831661057257604051634a1406b160e11b81525f600482015260240161031b565b6001600160a01b038085165f908152600160209081526040808320938716835292905220829055801561045557826001600160a01b0316846001600160a01b03167f8c5be1e5ebec7d5bd14f71427d1e84f3dd0314c0f7b2291e5b200ac8c7c3b925846040516105e491815260200190565b60405180910390a350505050565b6001600160a01b03831661061c578060025f828254610611919061088c565b9091555061068c9050565b6001600160a01b0383165f908152602081905260409020548181101561066e5760405163391434e360e21b81526001600160a01b0385166004820152602481018290526044810183905260640161031b565b6001600160a01b0384165f9081526020819052604090209082900390555b6001600160a01b0382166106a8576002805482900390556106c6565b6001600160a01b0382165f9081526020819052604090208054820190555b816001600160a01b0316836001600160a01b03167fddf252ad1be2c89b69c2b068fc378daa952ba7f163c4a11628f55a4df523b3ef8360405161070b91815260200190565b60405180910390a3505050565b5f6020808352835180828501525f5b8181101561074357858101830151858201604001528201610727565b505f604082860101526040601f19601f8301168501019250505092915050565b80356001600160a01b0381168114610779575f80fd5b919050565b5f806040838503121561078f575f80fd5b61079883610763565b946020939093013593505050565b5f805f606084860312156107b8575f80fd5b6107c184610763565b92506107cf60208501610763565b9150604084013590509250925092565b5f602082840312156107ef575f80fd5b6107f882610763565b9392505050565b5f8060408385031215610810575f80fd5b61081983610763565b915061082760208401610763565b90509250929050565b600181811c9082168061084457607f821691505b60208210810361086257634e487b7160e01b5f52602260045260245ffd5b50919050565b6020808252600a908201526937b7363c9030b236b4b760b11b604082015260600190565b808201808211156102c857634e487b7160e01b5f52601160045260245ffdfea2646970667358221220a5777c592bd6eef521a93dda919a63c2f202976bf7a4fdfb58f7eb830458ad2d64736f6c63430008140033",
  "immutableReferences": {},
  "source": "// SPDX-License-Identifier: MIT\npragma solidity ^0.8.20;\n\nimport './TokenBase.sol';\n\ncontract TokenEth is TokenBase {\n  constructor() TokenBase('ETH Token', 'ETK') {}\n}",
  "sourcePath": "/Users/urvaprajapati/Documents/untitled folder/contracts/TokenEth.sol",
  "compiler": {
    "name": "solc",
    "version": "0.8.20+commit.a1b79de6.Emscripten.clang"
  },
  "schemaVersion": "3.4.16",
  "updatedAt": "2024-03-01T14:08:13.097Z",
  "devdoc": {
    "errors": {
      "ERC20InsufficientAllowance(address,uint256,uint256)": [
        {
          "details": "Indicates a failure with the `spender`s `allowance`. Used in transfers.",
          "params": {
            "allowance": "Amount of tokens a `spender` is allowed to operate with.",
            "needed": "Minimum amount required to perform a transfer.",
            "spender": "Address that may be allowed to operate on tokens without being their owner."
          }
        }
      ],
      "ERC20InsufficientBalance(address,uint256,uint256)": [
        {
          "details": "Indicates an error related to the current `balance` of a `sender`. Used in transfers.",
          "params": {
            "balance": "Current balance for the interacting account.",
            "needed": "Minimum amount required to perform a transfer.",
            "sender": "Address whose tokens are being transferred."
          }
        }
      ],
      "ERC20InvalidApprover(address)": [
        {
          "details": "Indicates a failure with the `approver` of a token to be approved. Used in approvals.",
          "params": {
            "approver": "Address initiating an approval operation."
          }
        }
      ],
      "ERC20InvalidReceiver(address)": [
        {
          "details": "Indicates a failure with the token `receiver`. Used in transfers.",
          "params": {
            "receiver": "Address to which tokens are being transferred."
          }
        }
      ],
      "ERC20InvalidSender(address)": [
        {
          "details": "Indicates a failure with the token `sender`. Used in transfers.",
          "params": {
            "sender": "Address whose tokens are being transferred."
          }
        }
      ],
      "ERC20InvalidSpender(address)": [
        {
          "details": "Indicates a failure with the `spender` to be approved. Used in approvals.",
          "params": {
            "spender": "Address that may be allowed to operate on tokens without being their owner."
          }
        }
      ]
    },
    "events": {
      "Approval(address,address,uint256)": {
        "details": "Emitted when the allowance of a `spender` for an `owner` is set by a call to {approve}. `value` is the new allowance."
      },
      "Transfer(address,address,uint256)": {
        "details": "Emitted when `value` tokens are moved from one account (`from`) to another (`to`). Note that `value` may be zero."
      }
    },
    "kind": "dev",
    "methods": {
      "allowance(address,address)": {
        "details": "See {IERC20-allowance}."
      },
      "approve(address,uint256)": {
        "details": "See {IERC20-approve}. NOTE: If `value` is the maximum `uint256`, the allowance is not updated on `transferFrom`. This is semantically equivalent to an infinite approval. Requirements: - `spender` cannot be the zero address."
      },
      "balanceOf(address)": {
        "details": "See {IERC20-balanceOf}."
      },
      "decimals()": {
        "details": "Returns the number of decimals used to get its user representation. For example, if `decimals` equals `2`, a balance of `505` tokens should be displayed to a user as `5.05` (`505 / 10 ** 2`). Tokens usually opt for a value of 18, imitating the relationship between Ether and Wei. This is the default value returned by this function, unless it's overridden. NOTE: This information is only used for _display_ purposes: it in no way affects any of the arithmetic of the contract, including {IERC20-balanceOf} and {IERC20-transfer}."
      },
      "name()": {
        "details": "Returns the name of the token."
      },
      "symbol()": {
        "details": "Returns the symbol of the token, usually a shorter version of the name."
      },
      "totalSupply()": {
        "details": "See {IERC20-totalSupply}."
      },
      "transfer(address,uint256)": {
        "details": "See {IERC20-transfer}. Requirements: - `to` cannot be the zero address. - the caller must have a balance of at least `value`."
      },
      "transferFrom(address,address,uint256)": {
        "details": "See {IERC20-transferFrom}. Emits an {Approval} event indicating the updated allowance. This is not required by the EIP. See the note at the beginning of {ERC20}. NOTE: Does not update the allowance if the current allowance is the maximum `uint256`. Requirements: - `from` and `to` cannot be the zero address. - `from` must have a balance of at least `value`. - the caller must have allowance for ``from``'s tokens of at least `value`."
      }
    },
    "version": 1
  },
  "userdoc": {
    "kind": "user",
    "methods": {},
    "version": 1
  }
}